{
  "address": "0x711809c48641b8a38ab64c3293c5b1aa905bd4ca",
  "abi": [
    {
      "inputs": [
        {
          "internalType": "address payable",
          "name": "_gelato",
          "type": "address"
        }
      ],
      "stateMutability": "nonpayable",
      "type": "constructor"
    },
    {
      "anonymous": false,
      "inputs": [
        {
          "indexed": true,
          "internalType": "address",
          "name": "autoTopUp",
          "type": "address"
        },
        {
          "indexed": false,
          "internalType": "address",
          "name": "owner",
          "type": "address"
        }
      ],
      "name": "LogContractDeployed",
      "type": "event"
    },
    {
      "anonymous": false,
      "inputs": [
        {
          "indexed": true,
          "internalType": "address",
          "name": "previousOwner",
          "type": "address"
        },
        {
          "indexed": true,
          "internalType": "address",
          "name": "newOwner",
          "type": "address"
        }
      ],
      "name": "OwnershipTransferred",
      "type": "event"
    },
    {
      "inputs": [
        {
          "internalType": "address",
          "name": "",
          "type": "address"
        }
      ],
      "name": "autoTopUpByOwner",
      "outputs": [
        {
          "internalType": "contract AutoTopUp",
          "name": "",
          "type": "address"
        }
      ],
      "stateMutability": "view",
      "type": "function"
    },
    {
      "inputs": [],
      "name": "gelato",
      "outputs": [
        {
          "internalType": "address payable",
          "name": "",
          "type": "address"
        }
      ],
      "stateMutability": "view",
      "type": "function"
    },
    {
      "inputs": [],
      "name": "getAutoTopUps",
      "outputs": [
        {
          "internalType": "address[]",
          "name": "currentAutoTopUps",
          "type": "address[]"
        }
      ],
      "stateMutability": "view",
      "type": "function"
    },
    {
      "inputs": [
        {
          "internalType": "address payable[]",
          "name": "_receivers",
          "type": "address[]"
        },
        {
          "internalType": "uint256[]",
          "name": "_amounts",
          "type": "uint256[]"
        },
        {
          "internalType": "uint256[]",
          "name": "_balanceThresholds",
          "type": "uint256[]"
        }
      ],
      "name": "newAutoTopUp",
      "outputs": [
        {
          "internalType": "contract AutoTopUp",
          "name": "autoTopUp",
          "type": "address"
        }
      ],
      "stateMutability": "payable",
      "type": "function"
    },
    {
      "inputs": [],
      "name": "owner",
      "outputs": [
        {
          "internalType": "address",
          "name": "",
          "type": "address"
        }
      ],
      "stateMutability": "view",
      "type": "function"
    },
    {
      "inputs": [
        {
          "internalType": "contract AutoTopUp",
          "name": "",
          "type": "address"
        }
      ],
      "name": "ownerByAutoTopUp",
      "outputs": [
        {
          "internalType": "address",
          "name": "",
          "type": "address"
        }
      ],
      "stateMutability": "view",
      "type": "function"
    },
    {
      "inputs": [],
      "name": "renounceOwnership",
      "outputs": [],
      "stateMutability": "nonpayable",
      "type": "function"
    },
    {
      "inputs": [
        {
          "internalType": "address",
          "name": "newOwner",
          "type": "address"
        }
      ],
      "name": "transferOwnership",
      "outputs": [],
      "stateMutability": "nonpayable",
      "type": "function"
    },
    {
      "inputs": [
        {
          "internalType": "uint256",
          "name": "_amount",
          "type": "uint256"
        },
        {
          "internalType": "address payable",
          "name": "_to",
          "type": "address"
        }
      ],
      "name": "withdraw",
      "outputs": [],
      "stateMutability": "nonpayable",
      "type": "function"
    }
  ],
  "transactionHash": "0xab6076c449b416d78023554426fab4ae1e9f40e6db3a55ee8f1f1faee9a85fd1",
  "args": [
    "0x3CACa7b48D0573D793d3b0279b5F0029180E83b6"
  ],
  "solcInputHash": "82946c3202a9a38b3b33ab169c2e5758",
  "bytecode": "0x60a060405234801561001057600080fd5b5060405161207a38038061207a83398101604081905261002f9161009c565b6000610039610098565b600080546001600160a01b0319166001600160a01b0383169081178255604051929350917f8be0079c531659141344cd1fd0a4f28419497f9722a3daafe3b4186f6b6457e0908290a35060601b6001600160601b0319166080526100ca565b3390565b6000602082840312156100ad578081fd5b81516001600160a01b03811681146100c3578182fd5b9392505050565b60805160601c611f8b6100ef600039600081816102b701526105a70152611f8b6000f3fe6080604052600436106100855760003560e01c80636edc00c9116100595780636edc00c91461010a578063715018a61461012a5780638da5cb5b1461013f578063dfab768414610154578063f2fde38b1461017657610085565b8062f714ce1461008a5780630c80b33f146100ac57806334597e19146100d5578063573ea575146100f5575b600080fd5b34801561009657600080fd5b506100aa6100a53660046109f7565b610196565b005b6100bf6100ba366004610961565b610255565b6040516100cc9190610a29565b60405180910390f35b3480156100e157600080fd5b506100bf6100f036600461093e565b61058a565b34801561010157600080fd5b506100bf6105a5565b34801561011657600080fd5b506100bf61012536600461093e565b6105c9565b34801561013657600080fd5b506100aa6105e4565b34801561014b57600080fd5b506100bf610663565b34801561016057600080fd5b50610169610672565b6040516100cc9190610a5e565b34801561018257600080fd5b506100aa61019136600461093e565b61073a565b61019e6107f0565b6000546001600160a01b039081169116146101d45760405162461bcd60e51b81526004016101cb90610b33565b60405180910390fd5b6000816001600160a01b0316836040516101ed90610a26565b60006040518083038185875af1925050503d806000811461022a576040519150601f19603f3d011682016040523d82523d6000602084013e61022f565b606091505b50509050806102505760405162461bcd60e51b81526004016101cb90610b68565b505050565b336000908152600160205260408120546001600160a01b03161561028b5760405162461bcd60e51b81526004016101cb90610c5f565b858414801561029957508582145b6102b55760405162461bcd60e51b81526004016101cb90610c0a565b7f00000000000000000000000000000000000000000000000000000000000000006040516102e2906108e8565b6102ec9190610a29565b604051809103906000f080158015610308573d6000803e3d6000fd5b50905060005b8681101561040b57816001600160a01b0316632011825289898481811061034557634e487b7160e01b600052603260045260246000fd5b905060200201602081019061035a919061093e565b88888581811061037a57634e487b7160e01b600052603260045260246000fd5b905060200201358787868181106103a157634e487b7160e01b600052603260045260246000fd5b905060200201356040518463ffffffff1660e01b81526004016103c693929190610a3d565b600060405180830381600087803b1580156103e057600080fd5b505af11580156103f4573d6000803e3d6000fd5b50505050808061040390610cbc565b91505061030e565b503415610490576000816001600160a01b03163460405161042b90610a26565b60006040518083038185875af1925050503d8060008114610468576040519150601f19603f3d011682016040523d82523d6000602084013e61046d565b606091505b505090508061048e5760405162461bcd60e51b81526004016101cb90610bb7565b505b60405163f2fde38b60e01b81526001600160a01b0382169063f2fde38b906104bc903390600401610a29565b600060405180830381600087803b1580156104d657600080fd5b505af11580156104ea573d6000803e3d6000fd5b505033600081815260016020908152604080832080546001600160a01b0389166001600160a01b031991821681179092559084526002909252909120805490911690911790555061053e90506003826107f4565b50806001600160a01b03167f9d1a4c239905e9b5d95845d5f48e21925f52b63063de58daa328af12a73441c4336040516105789190610a29565b60405180910390a29695505050505050565b6002602052600090815260409020546001600160a01b031681565b7f000000000000000000000000000000000000000000000000000000000000000081565b6001602052600090815260409020546001600160a01b031681565b6105ec6107f0565b6000546001600160a01b039081169116146106195760405162461bcd60e51b81526004016101cb90610b33565b600080546040516001600160a01b03909116907f8be0079c531659141344cd1fd0a4f28419497f9722a3daafe3b4186f6b6457e0908390a3600080546001600160a01b0319169055565b6000546001600160a01b031690565b606060006106806003610812565b90508067ffffffffffffffff8111156106a957634e487b7160e01b600052604160045260246000fd5b6040519080825280602002602001820160405280156106d2578160200160208202803683370190505b50915060005b81811015610735576106eb60038261081d565b83828151811061070b57634e487b7160e01b600052603260045260246000fd5b6001600160a01b03909216602092830291909101909101528061072d81610cbc565b9150506106d8565b505090565b6107426107f0565b6000546001600160a01b0390811691161461076f5760405162461bcd60e51b81526004016101cb90610b33565b6001600160a01b0381166107955760405162461bcd60e51b81526004016101cb90610aed565b600080546040516001600160a01b03808516939216917f8be0079c531659141344cd1fd0a4f28419497f9722a3daafe3b4186f6b6457e091a3600080546001600160a01b0319166001600160a01b0392909216919091179055565b3390565b6000610809836001600160a01b038416610829565b90505b92915050565b600061080c82610873565b60006108098383610877565b600061083583836108d0565b61086b5750815460018181018455600084815260208082209093018490558454848252828601909352604090209190915561080c565b50600061080c565b5490565b8154600090821061089a5760405162461bcd60e51b81526004016101cb90610aab565b8260000182815481106108bd57634e487b7160e01b600052603260045260246000fd5b9060005260206000200154905092915050565b60009081526001919091016020526040902054151590565b61125a80610cfc83390190565b60008083601f840112610906578182fd5b50813567ffffffffffffffff81111561091d578182fd5b602083019150836020808302850101111561093757600080fd5b9250929050565b60006020828403121561094f578081fd5b813561095a81610ce3565b9392505050565b60008060008060008060608789031215610979578182fd5b863567ffffffffffffffff80821115610990578384fd5b61099c8a838b016108f5565b909850965060208901359150808211156109b4578384fd5b6109c08a838b016108f5565b909650945060408901359150808211156109d8578384fd5b506109e589828a016108f5565b979a9699509497509295939492505050565b60008060408385031215610a09578182fd5b823591506020830135610a1b81610ce3565b809150509250929050565b90565b6001600160a01b0391909116815260200190565b6001600160a01b039390931683526020830191909152604082015260600190565b6020808252825182820181905260009190848201906040850190845b81811015610a9f5783516001600160a01b031683529284019291840191600101610a7a565b50909695505050505050565b60208082526022908201527f456e756d657261626c655365743a20696e646578206f7574206f6620626f756e604082015261647360f01b606082015260800190565b60208082526026908201527f4f776e61626c653a206e6577206f776e657220697320746865207a65726f206160408201526564647265737360d01b606082015260800190565b6020808252818101527f4f776e61626c653a2063616c6c6572206973206e6f7420746865206f776e6572604082015260600190565b6020808252602f908201527f4175746f546f705570466163746f72793a2077697468647261773a204554482060408201526e1d1c985b9cd9995c8819985a5b1959608a1b606082015260800190565b60208082526033908201527f4175746f546f705570466163746f72793a206e65774175746f546f7055703a20604082015272115512081d1c985b9cd9995c8819985a5b1959606a1b606082015260800190565b60208082526035908201527f4175746f546f705570466163746f72793a206e65774175746f546f7055703a20604082015274092dce0eae840d8cadccee8d040dad2e6dac2e8c6d605b1b606082015260800190565b60208082526039908201527f4175746f546f705570466163746f72793a206e65774175746f546f7055703a2060408201527f416c72656164792063726561746564204175746f546f70557000000000000000606082015260800190565b6000600019821415610cdc57634e487b7160e01b81526011600452602481fd5b5060010190565b6001600160a01b0381168114610cf857600080fd5b5056fe60a060405234801561001057600080fd5b5060405161125a38038061125a83398101604081905261002f9161009c565b6000610039610098565b600080546001600160a01b0319166001600160a01b0383169081178255604051929350917f8be0079c531659141344cd1fd0a4f28419497f9722a3daafe3b4186f6b6457e0908290a35060601b6001600160601b0319166080526100ca565b3390565b6000602082840312156100ad578081fd5b81516001600160a01b03811681146100c3578182fd5b9392505050565b60805160601c6111646100f6600039600081816103aa015281816104b8015261069801526111646000f3fe6080604052600436106100aa5760003560e01c80638da5cb5b116100645780638da5cb5b146101b95780639a3452e5146101ce578063c058588f146101fc578063e061646b1461021c578063e721da981461023e578063f2fde38b1461026b576100f2565b8062f714ce146100f757806308e3399f1461011957806311f1aaf71461014f578063201182521461016f578063573ea57514610182578063715018a6146101a4576100f2565b366100f257336001600160a01b03167f388f22461180b88e53e5b61ee40ab838b5b2d4e7ec8a53709cb9088ef08bb006346040516100e89190610da3565b60405180910390a2005b600080fd5b34801561010357600080fd5b50610117610112366004610d05565b61028b565b005b34801561012557600080fd5b50610139610134366004610c74565b61038d565b6040516101469190610da3565b60405180910390f35b34801561015b57600080fd5b5061011761016a366004610ccb565b61039f565b61011761017d366004610c97565b610559565b34801561018e57600080fd5b50610197610696565b6040516101469190610d37565b3480156101b057600080fd5b506101176106ba565b3480156101c557600080fd5b50610197610739565b3480156101da57600080fd5b506101ee6101e9366004610c74565b610748565b6040516101469291906110a8565b34801561020857600080fd5b50610117610217366004610c74565b610761565b34801561022857600080fd5b50610231610869565b6040516101469190610d4b565b34801561024a57600080fd5b5061025e610259366004610c97565b610931565b6040516101469190610d98565b34801561027757600080fd5b50610117610286366004610c74565b61097f565b610293610a35565b6000546001600160a01b039081169116146102c95760405162461bcd60e51b81526004016102c090610f76565b60405180910390fd5b6000816001600160a01b0316836040516102e290610d34565b60006040518083038185875af1925050503d806000811461031f576040519150601f19603f3d011682016040523d82523d6000602084013e610324565b606091505b50509050806103455760405162461bcd60e51b81526004016102c090610dee565b336001600160a01b03167f6877d8201aa5faa73873cbec76506f1e07e007378a9d7a7fa4155446fd2a65aa8484604051610380929190611091565b60405180910390a2505050565b60036020526000908152604090205481565b336001600160a01b037f000000000000000000000000000000000000000000000000000000000000000016146103e75760405162461bcd60e51b81526004016102c090610ec8565b6103f2848484610931565b61040e5760405162461bcd60e51b81526004016102c090610f3f565b81846001600160a01b03163111156104385760405162461bcd60e51b81526004016102c090610e36565b6000846001600160a01b03168460405161045190610d34565b60006040518083038185875af1925050503d806000811461048e576040519150601f19603f3d011682016040523d82523d6000602084013e610493565b606091505b505080915050806104b65760405162461bcd60e51b81526004016102c090610dee565b7f00000000000000000000000000000000000000000000000000000000000000006001600160a01b0316826040516104ed90610d34565b60006040518083038185875af1925050503d806000811461052a576040519150601f19603f3d011682016040523d82523d6000602084013e61052f565b606091505b505080915050806105525760405162461bcd60e51b81526004016102c090610dee565b5050505050565b610561610a35565b6000546001600160a01b0390811691161461058e5760405162461bcd60e51b81526004016102c090610f76565b610599600184610a39565b156105b65760405162461bcd60e51b81526004016102c09061103f565b6001600160a01b038316600090815260036020526040902054156105ec5760405162461bcd60e51b81526004016102c090610ff1565b6105f7600184610a57565b50818160405160200161060b9291906110a8565b60408051601f1981840301815282825280516020918201206001600160a01b038716600081815260038452848120929092558484018452868552848301868152818352600490935290839020935184559051600190930192909255517fa6ca86c2db93c1cf1139f649b4f46e3482e6852b39ac6d9e4b60cade92e481c19061038090859085906110a8565b7f000000000000000000000000000000000000000000000000000000000000000081565b6106c2610a35565b6000546001600160a01b039081169116146106ef5760405162461bcd60e51b81526004016102c090610f76565b600080546040516001600160a01b03909116907f8be0079c531659141344cd1fd0a4f28419497f9722a3daafe3b4186f6b6457e0908390a3600080546001600160a01b0319169055565b6000546001600160a01b031690565b6004602052600090815260409020805460019091015482565b610769610a35565b6000546001600160a01b039081169116146107965760405162461bcd60e51b81526004016102c090610f76565b6107a1600182610a39565b6107bd5760405162461bcd60e51b81526004016102c090610ef8565b6001600160a01b038116600090815260036020526040902054806107f35760405162461bcd60e51b81526004016102c090610fab565b6107fe600183610a6c565b506001600160a01b0382166000818152600360209081526040808320839055600490915280822082815560010191909155517f074a95dba0d3afda38a17a5a0774ca0b596e66db24ebbe9dde5ec370cef5df709061085d908490610da3565b60405180910390a25050565b606060006108776001610a81565b90508067ffffffffffffffff8111156108a057634e487b7160e01b600052604160045260246000fd5b6040519080825280602002602001820160405280156108c9578160200160208202803683370190505b50915060005b8181101561092c576108e2600182610a8c565b83828151811061090257634e487b7160e01b600052603260045260246000fd5b6001600160a01b039092166020928302919091019091015280610924816110e5565b9150506108cf565b505090565b600082826040516020016109469291906110a8565b60408051601f1981840301815291815281516020928301206001600160a01b038716600090815260039093529120541490509392505050565b610987610a35565b6000546001600160a01b039081169116146109b45760405162461bcd60e51b81526004016102c090610f76565b6001600160a01b0381166109da5760405162461bcd60e51b81526004016102c090610e82565b600080546040516001600160a01b03808516939216917f8be0079c531659141344cd1fd0a4f28419497f9722a3daafe3b4186f6b6457e091a3600080546001600160a01b0319166001600160a01b0392909216919091179055565b3390565b6000610a4e836001600160a01b038416610a98565b90505b92915050565b6000610a4e836001600160a01b038416610ab0565b6000610a4e836001600160a01b038416610afa565b6000610a5182610c17565b6000610a4e8383610c1b565b60009081526001919091016020526040902054151590565b6000610abc8383610a98565b610af257508154600181810184556000848152602080822090930184905584548482528286019093526040902091909155610a51565b506000610a51565b60008181526001830160205260408120548015610c0d576000610b1e6001836110ce565b8554909150600090610b32906001906110ce565b90506000866000018281548110610b5957634e487b7160e01b600052603260045260246000fd5b9060005260206000200154905080876000018481548110610b8a57634e487b7160e01b600052603260045260246000fd5b600091825260209091200155610ba18360016110b6565b60008281526001890160205260409020558654879080610bd157634e487b7160e01b600052603160045260246000fd5b60019003818190600052602060002001600090559055866001016000878152602001908152602001600020600090556001945050505050610a51565b6000915050610a51565b5490565b81546000908210610c3e5760405162461bcd60e51b81526004016102c090610dac565b826000018281548110610c6157634e487b7160e01b600052603260045260246000fd5b9060005260206000200154905092915050565b600060208284031215610c85578081fd5b8135610c9081611116565b9392505050565b600080600060608486031215610cab578182fd5b8335610cb681611116565b95602085013595506040909401359392505050565b60008060008060808587031215610ce0578081fd5b8435610ceb81611116565b966020860135965060408601359560600135945092505050565b60008060408385031215610d17578182fd5b823591506020830135610d2981611116565b809150509250929050565b90565b6001600160a01b0391909116815260200190565b6020808252825182820181905260009190848201906040850190845b81811015610d8c5783516001600160a01b031683529284019291840191600101610d67565b50909695505050505050565b901515815260200190565b90815260200190565b60208082526022908201527f456e756d657261626c655365743a20696e646578206f7574206f6620626f756e604082015261647360f01b606082015260800190565b60208082526028908201527f4175746f546f7055703a20657865633a205265636569766572207061796d656e6040820152671d0819985a5b195960c21b606082015260800190565b6020808252602c908201527f4175746f546f7055703a20657865633a2042616c616e6365206e6f742062656c60408201526b1bddc81d1a1c995cda1bdb1960a21b606082015260800190565b60208082526026908201527f4f776e61626c653a206e6577206f776e657220697320746865207a65726f206160408201526564647265737360d01b606082015260800190565b6020808252601690820152754175746f546f7055703a204f6e6c792067656c61746f60501b604082015260600190565b60208082526027908201527f4175746f546f7055703a2073746f704175746f5061793a20496e76616c6964206040820152664175746f70617960c81b606082015260800190565b6020808252601d908201527f4175746f546f7055703a20657865633a204861736820696e76616c6964000000604082015260600190565b6020808252818101527f4f776e61626c653a2063616c6c6572206973206e6f7420746865206f776e6572604082015260600190565b60208082526026908201527f4175746f546f7055703a2073746f704175746f5061793a2048617368206e6f7460408201526508199bdd5b9960d21b606082015260800190565b6020808252602e908201527f4175746f546f7055703a2073746172744175746f5061793a204861736820616c60408201526d1c9958591e48185cdcda59db995960921b606082015260800190565b60208082526032908201527f4175746f546f7055703a2073746172744175746f5061793a20526563656976656040820152711c88185b1c9958591e48185cdcda59db995960721b606082015260800190565b9182526001600160a01b0316602082015260400190565b918252602082015260400190565b600082198211156110c9576110c9611100565b500190565b6000828210156110e0576110e0611100565b500390565b60006000198214156110f9576110f9611100565b5060010190565b634e487b7160e01b600052601160045260246000fd5b6001600160a01b038116811461112b57600080fd5b5056fea2646970667358221220c32120488ae2fff43967f77ad4cccf15811b972165cae4dec534dd85e0e793a164736f6c63430008000033a2646970667358221220e21474d18721bcf204b0425544c7b6aee36a370305348341534d9d3bf2b6135a64736f6c63430008000033",
  "devdoc": {
    "kind": "dev",
    "methods": {
      "getAutoTopUps()": {
        "details": "useful to query which autoTopUps to cancel"
      },
      "owner()": {
        "details": "Returns the address of the current owner."
      },
      "renounceOwnership()": {
        "details": "Leaves the contract without owner. It will not be possible to call `onlyOwner` functions anymore. Can only be called by the current owner. NOTE: Renouncing ownership will leave the contract without an owner, thereby removing any functionality that is only available to the owner."
      },
      "transferOwnership(address)": {
        "details": "Transfers ownership of the contract to a new account (`newOwner`). Can only be called by the current owner."
      }
    },
    "version": 1
  },
  "userdoc": {
    "kind": "user",
    "methods": {
      "getAutoTopUps()": {
        "notice": "Get all autoTopUps"
      }
    },
    "version": 1
  },
  "storageLayout": {
    "storage": [
      {
        "astId": 670,
        "contract": "contracts/AutoTopUpFactory.sol:AutoTopUpFactory",
        "label": "_owner",
        "offset": 0,
        "slot": "0",
        "type": "t_address"
      },
      {
        "astId": 395,
        "contract": "contracts/AutoTopUpFactory.sol:AutoTopUpFactory",
        "label": "autoTopUpByOwner",
        "offset": 0,
        "slot": "1",
        "type": "t_mapping(t_address,t_contract(AutoTopUp)376)"
      },
      {
        "astId": 400,
        "contract": "contracts/AutoTopUpFactory.sol:AutoTopUpFactory",
        "label": "ownerByAutoTopUp",
        "offset": 0,
        "slot": "2",
        "type": "t_mapping(t_contract(AutoTopUp)376,t_address)"
      },
      {
        "astId": 403,
        "contract": "contracts/AutoTopUpFactory.sol:AutoTopUpFactory",
        "label": "_autoTopUps",
        "offset": 0,
        "slot": "3",
        "type": "t_struct(AddressSet)2305_storage"
      }
    ],
    "types": {
      "t_address": {
        "encoding": "inplace",
        "label": "address",
        "numberOfBytes": "20"
      },
      "t_array(t_bytes32)dyn_storage": {
        "base": "t_bytes32",
        "encoding": "dynamic_array",
        "label": "bytes32[]",
        "numberOfBytes": "32"
      },
      "t_bytes32": {
        "encoding": "inplace",
        "label": "bytes32",
        "numberOfBytes": "32"
      },
      "t_contract(AutoTopUp)376": {
        "encoding": "inplace",
        "label": "contract AutoTopUp",
        "numberOfBytes": "20"
      },
      "t_mapping(t_address,t_contract(AutoTopUp)376)": {
        "encoding": "mapping",
        "key": "t_address",
        "label": "mapping(address => contract AutoTopUp)",
        "numberOfBytes": "32",
        "value": "t_contract(AutoTopUp)376"
      },
      "t_mapping(t_bytes32,t_uint256)": {
        "encoding": "mapping",
        "key": "t_bytes32",
        "label": "mapping(bytes32 => uint256)",
        "numberOfBytes": "32",
        "value": "t_uint256"
      },
      "t_mapping(t_contract(AutoTopUp)376,t_address)": {
        "encoding": "mapping",
        "key": "t_contract(AutoTopUp)376",
        "label": "mapping(contract AutoTopUp => address)",
        "numberOfBytes": "32",
        "value": "t_address"
      },
      "t_struct(AddressSet)2305_storage": {
        "encoding": "inplace",
        "label": "struct EnumerableSet.AddressSet",
        "members": [
          {
            "astId": 2304,
            "contract": "contracts/AutoTopUpFactory.sol:AutoTopUpFactory",
            "label": "_inner",
            "offset": 0,
            "slot": "0",
            "type": "t_struct(Set)2028_storage"
          }
        ],
        "numberOfBytes": "64"
      },
      "t_struct(Set)2028_storage": {
        "encoding": "inplace",
        "label": "struct EnumerableSet.Set",
        "members": [
          {
            "astId": 2023,
            "contract": "contracts/AutoTopUpFactory.sol:AutoTopUpFactory",
            "label": "_values",
            "offset": 0,
            "slot": "0",
            "type": "t_array(t_bytes32)dyn_storage"
          },
          {
            "astId": 2027,
            "contract": "contracts/AutoTopUpFactory.sol:AutoTopUpFactory",
            "label": "_indexes",
            "offset": 0,
            "slot": "1",
            "type": "t_mapping(t_bytes32,t_uint256)"
          }
        ],
        "numberOfBytes": "64"
      },
      "t_uint256": {
        "encoding": "inplace",
        "label": "uint256",
        "numberOfBytes": "32"
      }
    }
  }
}